:1000000003C1000032C1000030C100002EC1000059
:100010002CC100002AC1000028C1000026C1000038
:1000200024C1000022C1000020C100001EC1000048
:100030001CC100001AC1000018C1000016C1000058
:1000400014C1000012C1000010C100000EC1000068
:100050000CC100000AC1000008C100000C949B08FC
:1000600004C100000C9465080C943C08FEC000001C
:10007000FCC00000FAC00000F8C00000F6C000009C
:10008000F4C00000F2C00000F0C00000EEC00000AC
:10009000ECC00000EAC00000E8C000000C94E508D5
:1000A000E4C00000E2C00000E0C00000DEC00000CC
:1000B000DCC00000DAC00000D8C00000D6C00000DC
:1000C000D4C00000D2C00000D0C00000CEC00000EC
:1000D000CCC00000CAC00000C8C00000C6C00000FC
:1000E000C4C0000000002100240027002A002D00C9
:1000F0003000330001010000040107010A01000083
:100100002200250028002B002E00310034000201BF
:100110000000050108010B0100002000230026005B
:1001200029002C002F00320000010000030106010D
:10013000090105050505070508080808020202026D
:100140000A0A080804040404010101010101010173
:100150000303030303030303040707070C0C0C0C3E
:100160000C0C0C0C02020202060606060606060627
:100170000B0B0B0B0B0B0B0B0102102020080810B4
:100180002040102040800201020108040201010207
:1001900004081020408080402010080402018004E0
:1001A000020180402010080402010804020101023B
:1001B0000408102040800102040810204080000044
:1001C0000A0B02090C0D0E080703040100000000D1
:1001D000000000000000000000000000000000001F
:1001E00000000000000000000000121110000000DC
:1001F00000000000000000000000000000000000FF
:1002000000000000040A070E11241FBECFEFD1E248
:10021000DEBFCDBF00E00CBF25E0A8E3B3E001C026
:100220001D92AB33B207E1F713E0A0E0B2E0E8ECD7
:10023000F0E200E00BBF02C007900D92A833B107B7
:10024000D9F711E0C3E0D1E000E006C02197010931
:10025000802FFE010E943A0EC230D10780E00807CD
:10026000A9F70E94F20A0C945310CACE96E0899F17
:10027000D0011124A055BB4F90967C936E935F974D
:1002800091E091969C939197E0911D05F0911E0548
:1002900090911C05992339F0309751F0811108C0D5
:1002A0008091CC041994309719F05C968C91FACF18
:1002B00008950895AF92BF92CF92DF92EF92FF928E
:1002C0000F931F93CF93DF936C017B018B01040F7E
:1002D000151FEB015E01AE18BF08C017D10759F01A
:1002E0006991D601ED91FC910190F081E02DC6015C
:1002F0001995892B79F7C501DF91CF911F910F9146
:10030000FF90EF90DF90CF90BF90AF900895FC01E9
:1003100044815581608171818FE195E0CBCFFC01F3
:10032000538D448D252F30E0842F90E0821B930B5A
:10033000541710F0CF96089501970895FC01918D00
:10034000828D981761F0A28DAE0FBF2FB11D5D9603
:100350008C91928D9F5F9F73928F90E008958FEFA5
:100360009FEF0895FC01918D828D981731F0828D59
:10037000E80FF11D858D90E008958FEF9FEF0895B0
:10038000FC01918D228D892F90E0805C9F4F821B14
:1003900091098F739927089583EB93E0F1DF21E0B2
:1003A000892B09F420E0822F0895FC01A48DA80F69
:1003B000B92FB11DA35ABF4F2C91848D90E00196A7
:1003C0008F739927848FA689B7892C93A089B189C7
:1003D0008C91837080648C93938D848D981306C068
:1003E0000288F389E02D80818F7D80830895EF92CC
:1003F000FF920F931F93CF93DF93EC0181E0888FDF
:100400009B8D8C8D98131AC0E889F989808185FFAE
:1004100015C09FB7F894EE89FF896083E889F98950
:1004200080818370806480839FBF81E090E0DF9152
:10043000CF911F910F91FF90EF900895F62E0B8DA5
:1004400010E00F5F1F4F0F731127E02E8C8D8E1160
:100450000BC00FB607FCFACFE889F989808185FFC8
:10046000F5CFCE01A2DFF2CFEB8DEC0FFD2FF11D0A
:10047000E35AFF4FF0829FB7F8940B8FEA89FB890C
:1004800080818062D0CFCF93DF93EC01888D882369
:10049000B1F0AA89BB89E889F9898C9185FD03C0EF
:1004A000808186FD0CC00FB607FCF7CF8C9185FFCD
:1004B000F2CF808185FFEDCFCE0177DFEACFDF91EC
:1004C000CF91089580E090E0892B21F065DF8111C4
:1004D0000E94000080E090E0892B49F080E090E0ED
:1004E000892B29F00E94000081110E94000080E009
:1004F00090E0892B49F080E090E0892B29F00E9460
:10050000000081110E94000080E090E0892B49F0FA
:1005100080E090E0892B29F00E94000081110C946A
:10052000000008958150823108F05AC0E82FF0E0B1
:100530008827E256FD4F8F4F0C943A0EBE02C2023E
:10054000B002B602BA02F002C502CB02CF02D50257
:10055000D902DD02E302E702F002EB02F102F5024A
:10056000809180008F778093800008958091800033
:100570008F7DF9CF80918000877FF5CF84B58F770D
:1005800084BD089584B58F7DFBCF8091B0008F77B7
:100590008093B00008958091B0008F7DF9CF809155
:1005A00090008F77809390000895809190008F7DC8
:1005B000F9CF80919000877FF5CF8091A0008F7751
:1005C0008093A00008958091A0008F7DF9CF809145
:1005D000A000877FF5CF809120018F778093200145
:1005E0000895809120018F7DF9CF80912001877F30
:1005F000F5CFCF93DF93282F30E0F901E254FE4F7F
:100600008491F901E858FE4FD491F901EE5CFE4F58
:10061000C491CC2399F0811185DFEC2FF0E0EE0F2F
:10062000FF1FE85EFE4FA591B491EC91ED2381E0B0
:1006300090E009F480E0DF91CF91089580E090E0B0
:10064000FACF862FD6CF1F93CF93DF93282F30E09A
:10065000F901E254FE4F8491F901E858FE4FD4911C
:10066000F901EE5CFE4FC491CC23A1F0162F81114D
:1006700059DFEC2FF0E0EE0FFF1FE250FF4FA59186
:10068000B4918FB7F894EC91111108C0D095DE2386
:10069000DC938FBFDF91CF911F910895DE2BF8CFB0
:1006A000862F642FD0CFCF93DF9390E0FC01E858E2
:1006B000FE4F24918E5C9E4FFC0184918823C9F0EB
:1006C00090E0880F991FFC01EC51FF4FA591B49168
:1006D000FC01E250FF4FC591D49161110DC09FB74D
:1006E000F8948C91209582238C93888128232883E9
:1006F0009FBFDF91CF910895623051F49FB7F89476
:100700003C91822F809583238C93E8812E2BEFCF11
:100710008FB7F894EC912E2B2C938FBFEACF862FB6
:10072000642FC1CF3FB7F8948091AE039091AF038F
:10073000A091B003B091B10326B5A89B05C02F3F8F
:1007400019F00196A11DB11D3FBFBA2FA92F982FF7
:100750008827BC01CD01620F711D811D911D42E0F2
:10076000660F771F881F991F4A95D1F708958F92BA
:100770009F92AF92BF92CF92DF92EF92FF924B0186
:100780005C01D0DF6B017C01CDDF6C197D098E0926
:100790009F09683E734081059105B0F321E0821AFC
:1007A0009108A108B10888EEC80E83E0D81EE11CAC
:1007B000F11C81149104A104B10431F7FF90EF9072
:1007C000DF90CF90BF90AF909F908F9008952FB7FC
:1007D000F8946091AA037091AB038091AC0390915F
:1007E000AD032FBF08950F931F93F1DF6093BB03F9
:1007F0007093BC038093BD039093BE0383EB93E09F
:100800009DDD97FF1CC0E3DF0091BB031091BC038B
:100810002091BD033091BE03601B710B820B930BC3
:100820000091B7031091B8032091B9033091BA0336
:10083000601771078207930708F38FEF9FEF1F91EF
:100840000F9108950F931F93CF93DF93C82FD62F47
:1008500086E0C89FF0011124E055FB4F11A2878D5F
:1008600090A181309105E1F058F082309105D1F1ED
:10087000039709F43CC0DF91CF911F910F91089528
:100880006623C9F361E070E08C2FF0DCA0DF609399
:1008900008057093090580930A0590930B05EBCF2B
:1008A00096DF009108051091090520910A05309105
:1008B0000B05AB01BC01401B510B620B730B80910C
:1008C0001A0590911B05B0E0A0E084179507A607D4
:1008D000B70740F462E070E08C2FDF91CF911F9159
:1008E0000F91C4CC63E070E0D111C5CFF5CF70E0BB
:1008F00060E0F2CF6F927F928F929F92AF92BF9201
:10090000CF92DF92EF92FF920F931F93CF93DF93DB
:1009100081E080931C055BDF00910C0510910D05B3
:1009200020910E0530910F05AB01BC01401B510B0E
:10093000620B730B8091180590911905B0E0A0E04F
:1009400084179507A607B70708F00CC1C0E080918F
:100950001605C81758F4E0911205F0911305EC0F35
:10096000F11D62E080819FDECF5FF1CF712C812C81
:10097000912C5401839480911705781608F05AC081
:10098000072D10E0E0911405F0911505E00FF11F1F
:1009900061E0808188DEE0911405F0911505E00F9B
:1009A000F11F60E080814FDED501C401072C04C037
:1009B000880F991FAA1FBB1F0A94D2F76C017C01F4
:1009C000E094F094612C809116056816F0F4C62D21
:1009D000D0E0E0911205F0911305EC0FFD1F80812E
:1009E00008DE2496CC0FDD1FC055DB4F892B41F468
:1009F000888199818C299D29998388836394E3CF89
:100A0000888199818E219F21F7CFE0911405F09183
:100A10001505E00FF11F61E0808115DE809114055E
:100A200090911505080F191F60E0F80180813BDEE9
:100A30007394A1CFC0EBD4E0FE018FEF9FEF278D21
:100A400030A1232B21F4148E968F858F11A2369618
:100A500024E0EC3EF20799F7F12C96E0D92E809134
:100A60001605F81608F04FC0E12C0F2D10E0000F0E
:100A7000111F08541B4F20911705E21608F041C0C2
:100A8000F801608171810E2C02C0769567950A94F9
:100A9000E2F7F29E900111242E0D311DE0EBF4E0FF
:100AA00080E0458D568D2417350709F45FC08F5FB0
:100AB00036968A30B1F760FF22C0E0EBF4E090E0B8
:100AC00080E0448D411116C0E0911005F0911105B0
:100AD000E20FF31F4081D89EF001D99EF00D112442
:100AE000E055FB4F448F368F258F10A2178E61E0A3
:100AF000A9DE05C0019636968A30910511F7E39478
:100B0000BACFF394ACCF10E089A18111182F2696AB
:100B1000F4E0CC3EDF07C1F75ADE60930C0570931A
:100B20000D0580930E0590930F051123D9F0809148
:100B3000D1048823B9F08091CF049091D00401971B
:100B400089F48091CC04DF91CF911F910F91FF9098
:100B5000EF90DF90CF90BF90AF909F908F907F905D
:100B60006F90089510921C0580E0EDCF6170C0CFAA
:100B7000C1DE8823E9F3089520915F03260F332710
:100B8000331F21323105ECF420918303FC0190E006
:100B900080E0243069F082E00895A0915F03219104
:100BA000AC01415C5C4FA40FB52FB11D2C93019695
:100BB000861798F380915F03680F60935F0380E06E
:100BC000089581E0089508958FEF9FEF08958FEFC6
:100BD0009FEF08958091380390E091958195910958
:100BE0000895CF93DF93CB01EA01642FC5DFCE01D7
:100BF000DF91CF910895CF93DF931F92CDB7DEB7EA
:100C0000698361E0CE010196B7DF81E090E00F904B
:100C1000DF91CF91089590E080E00895CF93DF9326
:100C2000EC0160E08E810FDD61E08E810CDD60E023
:100C30008E8109DD8BE891E00197F1F7DF91CF918B
:100C40000895CF92DF92EF92FF920F931F93CF936D
:100C5000DF936C017C0187E0E80EF11CD0E0C0E07E
:100C6000062F10E0B8010C2E02C0759567950A9406
:100C7000E2F76170F70181917F01E5DC2196C430D4
:100C8000D10581F7C601DF91CF911F910F91FF90A0
:100C9000EF90DF90CF90C2CFCF92DF92EF92FF9292
:100CA0000F931F93CF93DF93EC01F62E642F8C816B
:100CB000CADC8D818F3F11F060E0C5DC0F2D10E0A4
:100CC0008F8584FF23C06E0187E0C80ED11CF12CF4
:100CD000E12CB8010E2C02C0759567950A94E2F7D5
:100CE0006170F60181916F01AEDCFFEFEF1AFF0A30
:100CF00088E0E816F10469F7CE01DF91CF911F91EA
:100D00000F91FF90EF90DF90CF9088CFB80184E0F3
:100D1000759567958A95E1F7CE0193DF6F2DCE012A
:100D2000DF91CF911F910F91FF90EF90DF90CF90C7
:100D300088CF40E0682F8FE195E0AECF81E0F9DF0A
:100D40008BE39FE10197F1F70895CF93DF93613033
:100D500029F090912E05986090932E0560933205AE
:100D60001092330590E49093340580933505805CB0
:100D70008093360561E08091230595DC8091240500
:100D80008F3F11F061E08FDC61E0809125058BDC05
:100D9000CFE1D5E09E012F51354080912E0584FD95
:100DA0000AC084E090E02196281739073CF461E0FE
:100DB0008E8179DCEFCF88E090E0F5CF8BE39DE08A
:100DC0000197F1F760E0809123053DDC60E08091C0
:100DD000250539DC809124058F3F11F060E033DC7C
:100DE00080912E0584FD2CC063E08FE195E029DF22
:100DF000CBE4D6E4CE010197F1F763E08FE195E013
:100E000020DF2197F1F763E08FE195E01ADF83E5BA
:100E100092E00197F1F762E08FE195E012DF8091B7
:100E20002E05806286DF84E080932F058CE081DFD1
:100E300085DF82E08093300586E0DF91CF9179CF26
:100E4000806277DF8BE496E40197F1F780912E05BD
:100E500080626FDF83E592E00197F1F780912E05C4
:100E6000806267DFDCCF90913205691710F06FEF79
:100E7000690FE62FF0E0E15EFA4F9489890F8068F0
:100E800058CF41E009DF81E090E008958F929F9272
:100E9000AF92BF920F931F93CF93DF93CDB7DEB77F
:100EA000A1970FB6F894DEBF0FBECDBF19A2423096
:100EB00008F44AE08E010F5D1F4F842E912CB12C57
:100EC000A12CA5019401B4D6E62FB901CA01EA30DC
:100ED0003CF5E05DD801EE938D01232B242B252BCF
:100EE00081F790E080E0109761F0FD010190002013
:100EF000E9F73197AF014A1B5B0BBD018FE195E02C
:100F0000D9D9A1960FB6F894DEBF0FBECDBFDF9141
:100F1000CF911F910F91BF90AF909F908F900895A8
:100F2000E95CD8CFBC01990F880B990B4AE0AECF92
:100F3000FC0101900020E9F73197AF01481B590BE4
:100F4000BC018FE195E0B6C90F931F93CF93DF9358
:100F5000EC0188819981009759F02A813B812617FD
:100F6000370730F081E0DF91CF911F910F91089505
:100F70008B016F5F7F4FABD7009759F099838883C0
:100F80001B830A832C813D81232B61F7FC01108296
:100F9000E9CF80E0E8CF1F93CF93DF9385ED809377
:100FA000BC0080913B0390913C03A0913D03B09124
:100FB0003E030796A11DB11D23E0B695A795979511
:100FC00087952A95D1F72091BC0024FD03C010928B
:100FD00083034EC040913B0350913C0360913D031D
:100FE00070913E03452B462B472B69F30097A105D3
:100FF000B10541F025E32A95F1F700000197A10919
:10100000B109E1CF80913A03C1E0C093390388234D
:1010100079F1D091B8001091BA008091BC008A7B20
:101020008093BC0060E084E10EDB60E085E10BDBD7
:1010300010928303C09385031092840361E084E1DE
:1010400002DB61E085E1FFDA8091B9008E7F809359
:10105000B9008091B9008D7F8093B90088E48093B6
:10106000B80085E48093BC001093BA00D093B80018
:10107000DF91CF911F9108951F920F920FB60F929B
:1010800011240BB60F922F933F934F935F936F935F
:101090007F938F939F93AF93BF93EF93FF9383EBD4
:1010A00093E083D9FF91EF91BF91AF919F918F9181
:1010B0007F916F915F914F913F912F910F900BBE58
:1010C0000F900FBE0F901F9018951F920F920FB6A2
:1010D0000F9211240BB60F922F938F939F93EF9340
:1010E000FF93E091C303F091C4038081E091C903B1
:1010F000F091CA0382FD1DC090818091CC038F5F67
:101100008F732091CD03821741F0E091CC03F0E082
:10111000ED54FC4F958F8093CC03FF91EF919F91FD
:101120008F912F910F900BBE0F900FBE0F901F90BD
:1011300018958081F2CF1F920F920FB60F92112453
:101140002F933F938F939F93AF93BF938091AA0365
:101150009091AB03A091AC03B091AD033091A90382
:1011600023E0230F2D3758F50196A11DB11D2093C3
:10117000A9038093AA039093AB03A093AC03B0930D
:10118000AD038091AE039091AF03A091B003B091F5
:10119000B1030196A11DB11D8093AE039093AF03DF
:1011A000A093B003B093B103BF91AF919F918F9182
:1011B0003F912F910F900FBE0F901F90189526E82A
:1011C000230F0296A11DB11DD2CF1F920F920FB611
:1011D0000F9211240BB60F922F933F934F935F936F
:1011E0006F937F938F939F93AF93BF93EF93FF93EF
:1011F0008091B900887F803609F44CC008F03FC068
:10120000883209F4A6C028F5803109F49AC0C8F4E0
:10121000882309F4F6C0883009F493C0FF91EF9158
:10122000BF91AF919F918F917F916F915F914F91FE
:101230003F912F910F900BBE0F900FBE0F901F90FC
:101240001895883109F485C0803241F78093820374
:1012500014C0803409F49AC040F48033B9F3883361
:10126000E9F68093820385ECADC0803509F482C035
:10127000883509F493C0883489F68DDECFCF88395C
:1012800009F48AC038F5883729F050F4883611F00F
:10129000803721F683E0809383031092810355C049
:1012A000883809F479C0803919F0803809F0B6CF50
:1012B00080918103803208F06FC0E091810381E06A
:1012C0008E0F809381038091BB00F0E0EF59FC4FBB
:1012D00080833BC0803B39F0D0F4803A09F477C07A
:1012E000883A09F09BCF84E08093830310926003D7
:1012F00010925F03F0E0E0E0199580915F038111A7
:101300000FC081E080935F0310923F0309C0803CCF
:1013100009F4A9CF883C09F4A6CF883B09F07ECF19
:10132000E091600381E08E0F80936003F0E0E15C68
:10133000FC4F80818093BB009091600380915F039C
:1013400029C08091A8038093BB0085EC8093BC00EA
:1013500065CF9091A7038091A603981758F5E09167
:10136000A70381E08E0F8093A703F0E0EA57FC4FBC
:101370008081E9CFE091A70381E08E0F8093A703DE
:101380008091BB00F0E0EA57FC4F80839091A70367
:101390008091A6039817C8F285E8D8CFE091A703FB
:1013A00081E08E0F8093A7038091BB00F0E0EA57A5
:1013B000FC4F80838091850381115FCF81E0809312
:1013C000840384EA8093BC001092830327CF85ECCA
:1013D0008093BC001092830380918103803230F4AB
:1013E000E0918103F0E0EF59FC4F1082609181039E
:1013F00070E081E693E0F0E0E0E01995109281035F
:101400000DCF1092820339CF0F931F93CF93DF93A9
:101410001092B6031092B50388EE93E0A0E0B0E01E
:101420008093B7039093B803A093B903B093BA0322
:1014300082E292E09093B4038093B30385EC90E052
:101440009093C0038093BF0384EC90E09093C20319
:101450008093C10380EC90E09093C4038093C30316
:1014600081EC90E09093C6038093C50382EC90E0FA
:101470009093C8038093C70386EC90E09093CA03CF
:101480008093C9031092CC031092CD031092CE0327
:101490001092CF0310922205109221058EE392E064
:1014A0009093200580931F0587E0809323058FEF9D
:1014B0008093240586E08093250585E080932605AA
:1014C00084E08093270583E08093280582E0809361
:1014D000290510922A0510922B0510922C051092C6
:1014E0002D0510922E0561E080E12FDC1092B204F0
:1014F0001092B6041092B5041092B70484E392E0FF
:101500009093B1048093B004ECECF4E01082148268
:1015100013821582369685E0E830F807B9F784E043
:1015200092E0909313058093120580E092E09093EF
:1015300015058093140584E08093160580931705A4
:1015400088E092E090931105809310058AE090E086
:10155000909319058093180584EF91E090931B05F3
:1015600080931A0510921E0510921D0510920C050D
:1015700010920D0510920E0510920F0510921C0589
:10158000C0E5D4E08E01085E1F4F198218821B82CD
:101590001A821D821C8270E060E0CE01D5DC2881B9
:1015A0003981811118C02115310511F0C90106D406
:1015B000198218821D821C821B821A822696C017ED
:1015C000D10719F784E0C03BD807E1F6DF91CF914E
:1015D0001F910F9108951D821C826BE672E0C90174
:1015E0005BD5ECCFCF93DF9300D000D01F921F923A
:1015F000CDB7DEB7789484B5826084BD84B5816050
:1016000084BD85B5826085BD85B5816085BD8091CD
:101610006E00816080936E00109281008091810045
:10162000826080938100809181008160809381003D
:10163000809180008160809380008091B1008460FF
:101640008093B1008091B00081608093B000809160
:1016500091008260809391008091910081608093DD
:101660009100809190008160809390008091A10012
:1016700082608093A1008091A10081608093A1008D
:101680008091A00081608093A00080912101826000
:1016900080932101809121018160809321018091BB
:1016A000200181608093200180917A008460809382
:1016B0007A0080917A00826080937A0080917A002B
:1016C000816080937A0080917A00806880937A00AC
:1016D0001092C10061E084E10E94530361E085E162
:1016E0000E94530364E084E130DB28DB61E080E0AA
:1016F000BADB86E492E01CDC62E080E0B4DB89E5E2
:1017000092E016DC61E085E10E942303E091C303CF
:10171000F091C40382E08083E091BF03F091C003A5
:101720001082E091C103F091C2038FEC808310928C
:10173000CB03E091C703F091C80386E08083E0917A
:10174000C503F091C603808180618083E091C50369
:10175000F091C603808188608083E091C503F09199
:10176000C603808180688083E091C503F091C60341
:1017700080818F7D808350E5C52E54E0D52E860173
:10178000B12CA12C83EB93E00E94C001892BD1F3F3
:101790001A8219821C821B821E821D8270E060E008
:1017A000CE010196D1DB29813A8181112BC021150F
:1017B000310511F0C90102D31A8219821E821D82DD
:1017C0001C821B8210D897FD24C08A30910509F134
:1017D0008F831886ED80FE808FEFE81AF80AB70134
:1017E000CE010196B1DB882369F329813A818D818D
:1017F0009E81BE01695F7F4F820F931F4DD4FE8291
:10180000ED82E0CF1E821D826BE672E0C90144D4F6
:10181000D9CFF80180819181009709F4FDC06981D9
:101820007A816115710509F4F6C0428153812D81D9
:101830003E814217530708F4EEC02ED48D819E815D
:10184000F801958384831E821D8289819A81009785
:1018500009F0B4D2FFEFAF1ABF0A0A5F1F4F84E04E
:10186000A816B10409F08ECFE8E1CE0ED11CF0EB42
:10187000CF16F4E0DF0609F082CF60E085E10E9438
:1018800023035CDA60E080E0EEDA8CE692E050DB85
:1018900061E080E0E8DA8EE792E04ADB62E080E037
:1018A000E2DA80E992E044DB63E080E0DCDA80EABF
:1018B00092E03EDB48E1F42E1DD88093B2038823EA
:1018C00009F434C18B3209F0B9C038DA61E080E044
:1018D000CADA84EB92E02CDB62E080E0C4DA87ECC9
:1018E00092E026DB68EC70E080E090E00E94B703B5
:1018F00000E514E0D12CC12C21DA60E080E0B3DAFD
:1019000088ED92E015DBC8010E94870161E080E06C
:10191000AADA8FED92E00CDBC80106960E948701DF
:1019200062E080E0A0DA85EE92E002DBC8010C966E
:101930000E94870163E080E096DA81EF92E0F8DAB6
:10194000C80142960E94870163E08AE08CDA88EF42
:1019500092E0EEDA8FEFC81AD80AC601E3DA6CE239
:1019600071E080E090E00E94B703085E1F4FE4E062
:10197000CE16D10409F0C0CFE1D930E5C32E34E052
:10198000D32E10E000E0602F80E06DDAC6010E94E7
:101990008701602F82E167DA0F5F1F4FC801C2DA4B
:1019A000F8E1CF0ED11C0430110569F7E1D880931E
:1019B000B2038091B2036FEC680F643008F4B9C0D1
:1019C0008A3209F49AC0BAD961E080E04CDA8FEF2C
:1019D00092E0AEDA64E670E080E090E00E94B70347
:1019E000ADD920E5C22E24E0D22E10E000E0602F19
:1019F00080E039DAC6010E948701602F82E133DA84
:101A00000F5F1F4FC8018EDA88E1C80ED11C043069
:101A1000110569F7CBCFD2D189819A81F8019183E1
:101A200080838B819C81938382838D819E8195832A
:101A300084831A8219821C821B8205CF8F3209F09F
:101A40004FC07CD990E5C92E94E0D92E10E000E07B
:101A5000602F80E008DAC6010E948701602F82E1D2
:101A600002DA0F5F1F4FC8015DDAE8E1CE0ED11C2C
:101A70000430110569F77CD88093B2031091B2034A
:101A80008FEC810F843008F47CC01A3209F435C021
:101A900055D961E080E0E7D98FEF92E049DA68EC50
:101AA00070E080E090E00E94B70348D980E5C82E3E
:101AB00084E0D82E10E000E0602F80E0D4D9C60189
:101AC0000E948701602F82E1CED90F5F1F4FC801AE
:101AD00029DAF8E1CF0ED11C0430110569F7CBCF1C
:101AE0002DD961E080E0BFD98FEF92E021DA68EC78
:101AF00070E080E090E00E94B70320D960E080E0D1
:101B0000B2D98CE692E014DA61E080E0ACD98EE7DD
:101B100092E00EDA62E080E0A6D980E992E008DA8D
:101B200063E080E0A0D980EA92E002DA0E946202DB
:101B3000C3CE83EB93E00E94F70100D961E080E01F
:101B400092D98FE093E0F4D962E080E08CD981E211
:101B500093E0EED961E084E10E94230361E085E136
:101B60000E94230368EC70E080E090E00E94B703DD
:101B700060E084E10E94230360E085E10E9423038A
:101B8000BCCFDCD860E080E06ED988ED92E0D0D99F
:101B9000812F110F990BC197F89E8001F99E100DAE
:101BA0001124C801805B9B4F0E94870161E080E0A7
:101BB0005AD98FED92E0BCD9C8018A5A9B4F0E9436
:101BC000870162E080E04FD985EE92E0B1D9C8018B
:101BD000845A9B4F0E94870163E080E044D981EFE3
:101BE00092E0A6D9C8018E599B4F0E94870163E0FD
:101BF0008AE039D98EE293E09BD98091B2038A3290
:101C000009F47BCF0E94B8058093B203F6CFCF933F
:101C1000DF93C0EBD4E0269788819981009709F083
:101C2000CDD084E0C035D807B1F7DF91CF910895CA
:101C3000A1E21A2EAA1BBB1BFD010DC0AA1FBB1FD0
:101C4000EE1FFF1FA217B307E407F50720F0A21B42
:101C5000B30BE40BF50B661F771F881F991F1A94AF
:101C600069F760957095809590959B01AC01BD01D9
:101C7000CF010895EE0FFF1F881F8BBF0790F691CD
:101C8000E02D19940F931F93CF93DF93823091052A
:101C900010F482E090E0E0913905F0913A0530E0EF
:101CA00020E0B0E0A0E0309799F42115310509F467
:101CB0004AC0281B390B24303105D8F58A819B8115
:101CC0006115710589F1FB0193838283FE0111C0C7
:101CD000408151810281138148175907E0F048176C
:101CE000590799F4109761F012960C931297139676
:101CF0001C933296CF01DF91CF911F910F910895E0
:101D00000093390510933A05F4CF2115310551F0B0
:101D10004217530738F0A901DB019A01BD01DF0129
:101D2000F801C1CFEF01F9CF90933A0580933905BF
:101D3000CDCFFE01E20FF31F819391932250310921
:101D400039832883D7CF2091370530913805232B4D
:101D500041F420911A0230911B02309338052093F0
:101D6000370520911802309119022115310541F4EF
:101D70002DB73EB740911C0250911D02241B350B1C
:101D8000E0913705F0913805E217F307A0F42E1B18
:101D90003F0B2817390778F0AC014E5F5F4F2417CF
:101DA000350748F04E0F5F1F5093380540933705B5
:101DB000819391939FCFF0E0E0E09CCFCF93DF93AE
:101DC0000097E9F0FC01329713821282A091390545
:101DD000B0913A05ED0130E020E01097A1F42081A8
:101DE0003181820F931F20913705309138052817D4
:101DF000390709F061C0F0933805E0933705DF91AA
:101E0000CF910895EA01CE17DF07E8F54A815B819B
:101E10009E0141155105B1F7E901FB83EA83499120
:101E20005991C40FD51FEC17FD0761F48081918192
:101E30000296840F951FE90199838883828193819B
:101E40009B838A83F0E0E0E012968D919C9113973A
:101E50000097B9F52D913C911197CD010296820F13
:101E6000931F20913705309138052817390739F627
:101E7000309751F510923A0510923905B093380514
:101E8000A0933705BCCFD383C28340815181840F97
:101E9000951FC817D90761F44E5F5F4F88819981FC
:101EA000480F591F518340838A819B81938382838A
:101EB0002115310509F0B0CFF0933A05E0933905CB
:101EC0009ECFFD01DC01C0CF13821282D7CF4F928B
:101ED0005F926F927F928F929F92AF92BF92CF92BA
:101EE000DF92EF92FF920F931F93CF93DF938C01BA
:101EF000009791F4CB01DF91CF911F910F91FF904B
:101F0000EF90DF90CF90BF90AF909F908F907F9099
:101F10006F905F904F90B6CEFC01E60FF71F9C01CB
:101F200022503109E217F30708F4AAC0D901CD9174
:101F3000DC911197C617D70718F1C530D10570F09D
:101F4000CE0104978617970748F0C61BD70B229738
:101F5000C193D1936D937C93CF0130DFC801DF91A2
:101F6000CF911F910F91FF90EF90DF90CF90BF9096
:101F7000AF909F908F907F906F905F904F9008955B
:101F80005B01AC1ABD0A4C018C0E9D1EA091390557
:101F9000B0913A05512C412CF12CE12C109731F5E0
:101FA00080913705909138058815990509F05CC036
:101FB0004616570608F058C08091180290911902F1
:101FC000009741F48DB79EB740911C0250911D02BD
:101FD000841B950BE817F90708F052C0F0933805F9
:101FE000E0933705F90171836083B8CF8D919C919F
:101FF000119712966C90129713967C901397A815D0
:10200000B90559F56C0142E0C40ED11CCA14DB04B9
:1020100020F1AC014A195B09DA011296159780F09C
:102020006282738251834083D9016D937C93E11462
:10203000F10471F0D7011396FC93EE9312978ECFB3
:1020400022968C0F9D1FF90191838083F301EFCFBE
:10205000F0933A05E093390581CF4816590608F404
:102060002C017D01D3019ACFCB010CDE7C010097BE
:1020700039F0AE01B80107D0C801A0DE87016ECFEC
:1020800010E000E06BCFFB01DC0102C001900D927B
:1020900041505040D8F70895FB01DC0101900D92AA
:1020A0000020E1F7089511E0C3E0D1E000E005C0B1
:1020B000802FFE01DFDD2196011DC430D10780E0B5
:0820C0000807B1F7F894FFCF07
:1020C8001A1B1C1D161718193738392F3435362A9C
:1020D8003132332D63303D2B00003B05800000007A
:1020E8000000F7015A018F014302C0019E01B201AD
:1020F800000000008F035003210300000000410787
:102108005A010B0659012020696E697469616C696E
:102118007A6174696F6E73210020202020706C65CD
:102128006173652077616974212020002020207761
:10213800656C636F6D6520746F207468650020207E
:1021480020766F74696E67206D616368696E6500DB
:102158002020202020766F746520202D3E202B0023
:10216800206D6F72652064657461696C7320202D21
:102178003E202F0020205768696368206F6E652015
:10218800646F20796F75002020202077616E74209D
:10219800746F20766F7465004E616D653A2000415A
:1021A80067653A200070726F66657373696F6E3A7F
:1021B8000047726164653A00636F64653A200020E5
:1021C8002020202077726F6E67206B6579210020B0
:1021D800207468616E6B7320666F7220796F7572F8
:1021E800002020202020202020564F5445006578CC
:0821F8006974202D3E202A002D
:00000001FF
