:1000000003C1000032C1000030C100002EC1000059
:100010002CC100002AC1000028C1000026C1000038
:1000200024C1000022C1000020C100001EC1000048
:100030001CC100001AC1000018C1000016C1000058
:1000400014C1000012C1000010C100000EC1000068
:100050000CC100000AC1000008C100000C94380A5D
:1000600004C100000C940E0A0C94E509FEC00000C7
:10007000FCC00000FAC00000F8C00000F6C000009C
:10008000F4C00000F2C00000F0C00000EEC00000AC
:100090000C94BC090C949309E8C000000C94820AEB
:1000A000E4C00000E2C00000E0C00000DEC00000CC
:1000B000DCC00000DAC00000D8C00000D6C00000DC
:1000C000D4C00000D2C00000D0C000000C946A0967
:1000D0000C944109CAC000000C9418090C94EF0854
:1000E000C4C0000000002100240027002A002D00C9
:1000F0003000330001010000040107010A01000083
:100100002200250028002B002E00310034000201BF
:100110000000050108010B0100002000230026005B
:1001200029002C002F00320000010000030106010D
:10013000090105050505070508080808020202026D
:100140000A0A080804040404010101010101010173
:100150000303030303030303040707070C0C0C0C3E
:100160000C0C0C0C02020202060606060606060627
:100170000B0B0B0B0B0B0B0B0102102020080810B4
:100180002040102040800201020108040201010207
:1001900004081020408080402010080402018004E0
:1001A000020180402010080402010804020101023B
:1001B0000408102040800102040810204080000044
:1001C0000A0B02090C0D0E080703040100000000D1
:1001D000000000000000000000000000000000001F
:1001E00000000000000000000000121110000000DC
:1001F00000000000000000000000000000000000FF
:1002000000000000A10BB01111241FBECFEFD1E2FE
:10021000DEBFCDBF00E00CBF28E0A4ECB4E001C01D
:100220001D92A93AB207E1F714E0A0E0B2E0EAE5D6
:10023000F8E200E00BBF02C007900D92A43CB107AA
:10024000D9F711E0C3E0D1E000E006C02197010931
:10025000802FFE010E94FA11C230D10780E008070A
:10026000A9F70E94630D0C941C14CACEFC01A0894E
:10027000B18982E08C93A485B5851C92A685B7854B
:100280008FEC8C93108EA489B58986E08C93A2891B
:10029000B3898C9180618C93A289B3898C91886099
:1002A0008C93A289B3898C9180688C930288F3899E
:1002B000E02D80818F7D8083089596E0899FD00115
:1002C0001124A25EB74F90967C936E935F9791E056
:1002D00091969C939197E0918B08F0918C08909166
:1002E0008A08992339F0309751F0811108C0809124
:1002F0003A081994309719F05C968C91FACF0895CA
:10030000CF92DF92EF92FF920F931F9396E0899F17
:10031000F0011124E25EF74F11A2278D30A12130A8
:10032000310549F178F02230310509F44FC023300E
:10033000310509F450C01F910F91FF90EF90DF90AD
:10034000CF9008956623B9F361E070E0B6DF2FB770
:10035000F8948091400590914105A0914205B0919B
:1003600043052FBF8093760890937708A093780871
:10037000B0937908E0CF9FB7F894C0904005D09033
:100380004105E0904205F09043059FBF009176083B
:10039000109177082091780830917908C01AD10A15
:1003A000E20AF30A009188081091890830E020E001
:1003B0000C151D052E053F0548F462E070E01F9105
:1003C0000F91FF90EF90DF90CF9077CF6111B3CF77
:1003D00063E070E0F4CF70E060E0F1CFAF92BF92E5
:1003E000CF92DF92EF92FF920F931F93CF93DF9301
:1003F0006C017B018B01040F151FEB015E01AE1830
:10040000BF08C017D10759F06991D601ED91FC9151
:100410000190F081E02DC6011995892B79F7C5016E
:10042000DF91CF911F910F91FF90EF90DF90CF90D0
:10043000BF90AF900895FC01A089B1898C91A689E5
:10044000B78982FD0FC09C91818D8F5F8F73228D44
:10045000821749F0A18DAE0FBF2FB11D5D969C9301
:10046000818F08958C910895FC01538D448D252F23
:1004700030E0842F90E0821B930B541710F0CF963E
:10048000089501970895FC01918D828D981761F070
:10049000A28DAE0FBF2FB11D5D968C91928D9F5F87
:1004A0009F73928F90E008958FEF9FEF0895FC0166
:1004B000918D828D981731F0828DE80FF11D858D19
:1004C00090E008958FEF9FEF0895FC01918D228DAC
:1004D000892F90E0805C9F4F821B91098F73992731
:1004E000089584E495E0F1DF21E0892B09F420E010
:1004F000822F089581EE95E0E8DF21E0892B09F451
:1005000020E0822F08958EE796E0DFDF21E0892B3F
:1005100009F420E0822F08958BE197E0D6DF21E0F7
:10052000892B09F420E0822F0895FC01A48DA80FE7
:10053000B92FB11DA35ABF4F2C91848D90E0019625
:100540008F739927848FA689B7892C93A089B18945
:100550008C91837080648C93938D848D981306C0E6
:100560000288F389E02D80818F7D80830895EF924A
:10057000FF920F931F93CF93DF93EC0181E0888F5D
:100580009B8D8C8D98131AC0E889F989808185FF2D
:1005900015C09FB7F894EE89FF896083E889F989CF
:1005A00080818370806480839FBF81E090E0DF91D1
:1005B000CF911F910F91FF90EF900895F62E0B8D24
:1005C00010E00F5F1F4F0F731127E02E8C8D8E11DF
:1005D0000BC00FB607FCFACFE889F989808185FF47
:1005E000F5CFCE01A2DFF2CFEB8DEC0FFD2FF11D89
:1005F000E35AFF4FF0829FB7F8940B8FEA89FB898B
:1006000080818062D0CFCF93DF93EC01888D8823E7
:10061000B1F0AA89BB89E889F9898C9185FD03C06D
:10062000808186FD0CC00FB607FCF7CF8C9185FF4B
:10063000F2CF808185FFEDCFCE0177DFEACFDF916A
:10064000CF9108958150823108F05AC0E82FF0E030
:100650008827E25DFC4F8F4F0C94FA114E03520332
:10066000400346034A03800355035B035F036503AE
:1006700069036D037303770380037B0381038503A1
:10068000809180008F778093800008958091800012
:100690008F7DF9CF80918000877FF5CF84B58F77EC
:1006A00084BD089584B58F7DFBCF8091B0008F7796
:1006B0008093B00008958091B0008F7DF9CF809134
:1006C00090008F77809390000895809190008F7DA7
:1006D000F9CF80919000877FF5CF8091A0008F7730
:1006E0008093A00008958091A0008F7DF9CF809124
:1006F000A000877FF5CF809120018F778093200124
:100700000895809120018F7DF9CF80912001877F0E
:10071000F5CFCF93DF93282F30E0F901E254FE4F5D
:100720008491F901E858FE4FD491F901EE5CFE4F37
:10073000C491CC2399F0811185DFEC2FF0E0EE0F0E
:10074000FF1FE85EFE4FA591B491EC91ED2381E08F
:1007500090E009F480E0DF91CF91089580E090E08F
:10076000FACF862FD6CF1F93CF93DF93282F30E079
:10077000F901E254FE4F8491F901E858FE4FD491FB
:10078000F901EE5CFE4FC491CC23A1F0162F81112C
:1007900059DFEC2FF0E0EE0FFF1FE250FF4FA59165
:1007A000B4918FB7F894EC91111108C0D095DE2365
:1007B000DC938FBFDF91CF911F910895DE2BF8CF8F
:1007C000862F642FD0CFCF93DF9390E0FC01E858C1
:1007D000FE4F24918E5C9E4FFC0184918823C9F0CA
:1007E00090E0880F991FFC01EC51FF4FA591B49147
:1007F000FC01E250FF4FC591D49161110DC09FB72C
:10080000F8948C91209582238C93888128232883C7
:100810009FBFDF91CF910895623051F49FB7F89454
:100820003C91822F809583238C93E8812E2BEFCFF0
:100830008FB7F894EC912E2B2C938FBFEACF862F95
:10084000642FC1CF6F927F928F929F92AF92BF928F
:10085000CF92DF92EF92FF920F931F93CF93DF938C
:1008600081E080938A088FB7F894409140055091B9
:10087000410560914205709143058FBF80917A08D0
:1008800090917B08A0917C08B0917D08481B590B82
:100890006A0B7B0B8091860890918708B0E0A0E0FE
:1008A00084179507A607B70708F016C1C0E0809126
:1008B0008408C81758F4E0918008F0918108EC0F83
:1008C000F11D62E080817FDFCF5FF1CF712C812C41
:1008D000912C5401839480918508781608F05AC0B1
:1008E000072D10E0E0918208F0918308E00FF11FDE
:1008F00061E0808168DFE0918208F0918308E00F79
:10090000F11F60E080812FDFD501C401072C04C0F6
:10091000880F991FAA1FBB1F0A94D2F76C017C0194
:10092000E094F094612C809184086816F0F4C62D50
:10093000D0E0E0918008F0918108EC0FFD1F8081EC
:10094000E8DE2496CC0FDD1FC25ED74F892B41F421
:10095000888199818C299D29998388836394E3CF29
:10096000888199818E219F21F7CFE0918208F091B3
:100970008308E00FF11F61E08081F5DE809182083D
:1009800090918308080F191F60E0F80180811BDF38
:100990007394A1CFCEE1D8E0FE018FEF9FEF278DBA
:1009A00030A1232B21F4148E968F858F11A23696B9
:1009B00028E0EA35F20799F7F12C96E0D92E8091DC
:1009C0008408F81608F04FC0E12C0F2D10E0000F3E
:1009D000111F0A5D174F20918508E21608F041C0EB
:1009E000F801608171810E2C02C0769567950A949A
:1009F000E2F7F29E900111242E0D311DEEE1F8E098
:100A000080E0458D568D2417350709F469C08F5F46
:100A100036968A30B1F760FF22C0EEE1F8E090E050
:100A200080E0448D411116C0E0917E08F0917F086E
:100A3000E20FF31F4081D89EF001D99EF00D1124E2
:100A4000E25EF74F448F368F258F10A2178E61E03C
:100A500057DC05C0019636968A30910511F7E3946C
:100A6000BACFF394ACCF80E099A19111892F26964B
:100A7000F8E0CA35DF07C1F79FB7F8944091400509
:100A80005091410560914205709143059FBF40938D
:100A90007A0850937B0860937C0870937D088823C4
:100AA000D9F080913F088823B9F080913D0890915A
:100AB0003E08019789F480913A08DF91CF911F9108
:100AC0000F91FF90EF90DF90CF90BF90AF909F90ED
:100AD0008F907F906F90089510928A0880E0EDCFFC
:100AE0006170B6CFAFDE8823E9F308953FB7F8947D
:100AF0008091360590913705A0913805B091390560
:100B000026B5A89B05C02F3F19F00196A11DB11D68
:100B10003FBFBA2FA92F982F8827BC01CD01620FA4
:100B2000711D811D911D42E0660F771F881F991F5F
:100B30004A95D1F708958F929F92AF92BF92CF922C
:100B4000DF92EF92FF924B015C01D0DF6B017C01E1
:100B5000CDDF6C197D098E099F09683E73408105C0
:100B60009105B0F321E0821A9108A108B10888EE3E
:100B7000C80E83E0D81EE11CF11C81149104A1046D
:100B8000B10431F7FF90EF90DF90CF90BF90AF901E
:100B90009F908F90089508952091EB04260F33279E
:100BA000331F21323105ECF420910F05FC0190E058
:100BB00080E0243069F082E00895A091EB04219157
:100BC000AC0145535B4FA40FB52FB11D2C9301967B
:100BD000861798F38091EB04680F6093EB0480E034
:100BE000089581E0089508958FEF9FEF08958FEFA6
:100BF0009FEF08958091C40490E0919581959109AB
:100C00000895CF93DF93CB01EA01642FC5DFCE01B6
:100C1000DF91CF910895CF93DF931F92CDB7DEB7C9
:100C2000698361E0CE010196B7DF81E090E00F902B
:100C3000DF91CF91089590E080E00895CF93DF9306
:100C4000EC0160E08E818FDD61E08E818CDD60E003
:100C50008E8189DD8BE891E00197F1F7DF91CF91EB
:100C60000895CF92DF92EF92FF920F931F93CF934D
:100C7000DF936C017C0187E0E80EF11CD0E0C0E05E
:100C8000062F10E0B8010C2E02C0759567950A94E6
:100C9000E2F76170F70181917F0165DD2196C43033
:100CA000D10581F7C601DF91CF911F910F91FF9080
:100CB000EF90DF90CF90C2CFCF92DF92EF92FF9272
:100CC0000F931F93CF93DF93EC01F62E642F8C814B
:100CD0004ADD8D818F3F11F060E045DD0F2D10E082
:100CE0008F8584FF23C06E0187E0C80ED11CF12CD4
:100CF000E12CB8010E2C02C0759567950A94E2F7B5
:100D00006170F60181916F012EDDFFEFEF1AFF0A8E
:100D100088E0E816F10469F7CE01DF91CF911F91C9
:100D20000F91FF90EF90DF90CF9088CFB80184E0D3
:100D3000759567958A95E1F7CE0193DF6F2DCE010A
:100D4000DF91CF911F910F91FF90EF90DF90CF90A7
:100D500088CF40E0682F8DE898E0AECF81E0F9DFE2
:100D60008BE39FE10197F1F70895CF93DF93613013
:100D700029F090919C08986090939C086093A0083B
:100D80001092A10890E49093A2088093A308805C3D
:100D90008093A40861E08091910815DD809192080C
:100DA0008F3F11F061E00FDD61E0809193080BDD72
:100DB000CDE8D8E09E012D58384080919C0884FDF4
:100DC0000AC084E090E02196281739073CF461E0DE
:100DD0008E81F9DCEFCF88E090E0F5CF8BE39DE0EA
:100DE0000197F1F760E080919108BDDC60E08091AF
:100DF0009308B9DC809192088F3F11F060E0B3DC7A
:100E000080919C0884FD2CC063E08DE898E029DF88
:100E1000CBE4D6E4CE010197F1F763E08DE898E0EA
:100E200020DF2197F1F763E08DE898E01ADF83E592
:100E300092E00197F1F762E08DE898E012DF80918F
:100E40009C08806286DF84E080939D088CE081DFCF
:100E500085DF82E080939E0886E0DF91CF9179CF95
:100E6000806277DF8BE496E40197F1F780919C082C
:100E700080626FDF83E592E00197F1F780919C0833
:100E8000806267DFDCCF9091A008691710F06FEFE8
:100E9000690FE62FF0E0E357F74F9489890F8068D8
:100EA00058CF41E009DF81E090E00895FC018081A6
:100EB0009181009711F00C949E120895FB0101900E
:100EC0000020E9F73197AF01461B570BDC01ED918C
:100ED000FC910280F381E02D1994BC018DE898E02B
:100EE000EDCF0F931F93CF93DF93EC01FB01448170
:100EF00055816081718172DA8C0166E472E0CE0105
:100F0000DDDF800F911FDF91CF911F910F91089529
:100F10000F931F93CF93DF93EC0188819981009702
:100F200059F02A813B812617370730F081E0DF91A5
:100F3000CF911F910F9108958B016F5F7F4F0E949A
:100F40002713009759F0998388831B830A832C8188
:100F50003D81232B59F7FC011082E8CF80E0E7CFD9
:100F6000EF92FF920F931F93CF93DF931F921F92E5
:100F7000CDB7DEB78C0169831A82FC01E480F5806D
:100F8000FFEFEF1AFF0AB701C3DF882381F0F801F2
:100F90002081318184819581BE016F5F7F4F820FF7
:100FA000931F0E941514F801F582E48281E00F90EE
:100FB0000F90DF91CF911F910F91FF90EF900895C7
:100FC000EF92FF920F931F93CF93DF93EC017B017E
:100FD0008A01BA019DDF28813981811114C0211550
:100FE000310519F0C9010E949E12198218821D82D2
:100FF0001C821B821A82CE01DF91CF911F910F912B
:10100000FF90EF9008951D830C83B701C9010E94E2
:101010001514F1CFFB0101900020E9F73197AF01E2
:10102000461B570BCDCFFC01118210821382128216
:1010300015821482FB0101900020E9F73197AF017E
:10104000461B570BBDCF1F93CF93DF9385ED809346
:10105000BC008091C7049091C804A091C904B091CC
:10106000CA040796A11DB11D23E0B695A7959795D3
:1010700087952A95D1F72091BC0024FD03C01092DA
:101080000F054EC04091C7045091C8046091C90437
:101090007091CA04452B462B472B69F30097A10595
:1010A000B10541F025E32A95F1F700000197A10968
:1010B000B109E1CF8091C604C1E0C093C504882383
:1010C00079F1D091B8001091BA008091BC008A7B70
:1010D0008093BC0060E084E146DB60E085E143DBB7
:1010E00010920F05C09311051092100561E084E184
:1010F0003ADB61E085E137DB8091B9008E7F809338
:10110000B9008091B9008D7F8093B90088E4809305
:10111000B80085E48093BC001093BA00D093B80067
:10112000DF91CF911F9108950C94CA118BE197E044
:10113000CCD9892B69F08BE197E0A5D99927FC01DF
:10114000E65CFA4F60816F5F60830896EDDFEECF5B
:1011500008958EE796E0B9D9892B69F08EE796E07D
:1011600092D99927FC01E65CFA4F60816F5F60833A
:101170000896DADFEECF089581EE95E0A6D9892BA7
:1011800069F081EE95E07FD99927FC01E65CFA4F82
:1011900060816F5F60830896C7DFEECF089584E4B7
:1011A00095E093D9892B69F084E495E06CD999276F
:1011B000FC01E65CFA4F60816F5F60830896B4DFE4
:1011C000EECF0895A9D98111B1DF9DD98111C1DF79
:1011D00091D98111D1DF85D98111E1CF08951F9275
:1011E0000F920FB60F9211240BB60F922F933F93CD
:1011F0004F935F936F937F938F939F93AF93BF931F
:10120000EF93FF9384E495E090D9FF91EF91BF9124
:10121000AF919F918F917F916F915F914F913F918E
:101220002F910F900BBE0F900FBE0F901F9018952F
:101230001F920F920FB60F9211240BB60F922F939D
:101240003F934F935F936F937F938F939F93AF934E
:10125000BF93EF93FF9384E495E0EDD8FF91EF9176
:10126000BF91AF919F918F917F916F915F914F91BE
:101270003F912F910F900BBE0F900FBE0F901F90BC
:1012800018951F920F920FB60F9211240BB60F9262
:101290002F933F934F935F936F937F938F939F937E
:1012A000AF93BF93EF93FF9381EE95E03ED9FF910B
:1012B000EF91BF91AF919F918F917F916F915F91CE
:1012C0004F913F912F910F900BBE0F900FBE0F903B
:1012D0001F9018951F920F920FB60F9211240BB604
:1012E0000F922F933F934F935F936F937F938F93BF
:1012F0009F93AF93BF93EF93FF9381EE95E09BD8BD
:10130000FF91EF91BF91AF919F918F917F916F91DD
:101310005F914F913F912F910F900BBE0F900FBE99
:101320000F901F9018951F920F920FB60F921124D5
:101330000BB60F922F933F934F935F936F937F93CF
:101340008F939F93AF93BF93EF93FF938EE796E0B6
:10135000ECD8FF91EF91BF91AF919F918F917F91C9
:101360006F915F914F913F912F910F900BBE0F9016
:101370000FBE0F901F9018951F920F920FB60F92ED
:1013800011240BB60F922F933F934F935F936F935C
:101390007F938F939F93AF93BF93EF93FF938EE7CA
:1013A00096E049D8FF91EF91BF91AF919F918F91B6
:1013B0007F916F915F914F913F912F910F900BBE55
:1013C0000F900FBE0F901F9018951F920F920FB69F
:1013D0000F9211240BB60F922F933F934F935F936D
:1013E0006F937F938F939F93AF93BF93EF93FF93ED
:1013F0008BE197E09AD8FF91EF91BF91AF919F91C8
:101400008F917F916F915F914F913F912F910F90AD
:101410000BBE0F900FBE0F901F9018951F920F924A
:101420000FB60F9211240BB60F922F933F934F9349
:101430005F936F937F938F939F93AF93BF93EF933C
:10144000FF938BE197E00E941B02FF91EF91BF9108
:10145000AF919F918F917F916F915F914F913F914C
:101460002F910F900BBE0F900FBE0F901F901895ED
:101470001F920F920FB60F9211242F933F938F93C9
:101480009F93AF93BF938091400590914105A091A8
:101490004205B09143053091350523E0230F2D37E8
:1014A00058F50196A11DB11D209335058093400587
:1014B00090934105A0934205B09343058091360572
:1014C00090913705A0913805B09139050196A11D7D
:1014D000B11D8093360590933705A0933805B093DE
:1014E0003905BF91AF919F918F913F912F910F90AF
:1014F0000FBE0F901F90189526E8230F0296A11D8E
:10150000B11DD2CF1F920F920FB60F9211240BB6BE
:101510000F922F933F934F935F936F937F938F938C
:101520009F93AF93BF93EF93FF938091B900887F10
:10153000803609F44CC008F03FC0883209F4A6C0D8
:1015400028F5803109F49AC0C8F4882309F4F6C05C
:10155000883009F493C0FF91EF91BF91AF919F91B3
:101560008F917F916F915F914F913F912F910F904C
:101570000BBE0F900FBE0F901F901895883109F485
:1015800085C0803241F780930E0514C0803409F481
:101590009AC040F48033B9F38833E9F680930E059E
:1015A00085ECADC0803509F482C0883509F493C05C
:1015B000883489F648DDCFCF883909F48AC038F5F8
:1015C000883729F050F4883611F0803721F683E00F
:1015D00080930F0510920D0555C0883809F479C025
:1015E000803919F0803809F0B6CF80910D0580322E
:1015F00008F06FC0E0910D0581E08E0F80930D051E
:101600008091BB00F0E0E351FB4F80833BC0803B07
:1016100039F0D0F4803A09F477C0883A09F09BCFCA
:1016200084E080930F051092EC041092EB04F0E03C
:10163000E0E019958091EB0481110FC081E0809367
:10164000EB041092CB0409C0803C09F4A9CF883C7C
:1016500009F4A6CF883B09F07ECFE091EC0481E04D
:101660008E0F8093EC04F0E0E553FB4F8081809374
:10167000BB009091EC048091EB0429C0809134056B
:101680008093BB0085EC8093BC0065CF90913305BF
:1016900080913205981758F5E091330581E08E0F5F
:1016A00080933305F0E0EE5EFA4F8081E9CFE09160
:1016B000330581E08E0F809333058091BB00F0E00D
:1016C000EE5EFA4F80839091330580913205981732
:1016D000C8F285E8D8CFE091330581E08E0F809382
:1016E00033058091BB00F0E0EE5EFA4F808380917D
:1016F000110581115FCF81E08093100584EA80930A
:10170000BC0010920F0527CF85EC8093BC0010928F
:101710000F0580910D05803230F4E0910D05F0E069
:10172000E351FB4F108260910D0570E08DEE94E067
:10173000F0E0E0E0199510920D050DCF10920E0526
:1017400039CF109247051092460548EE53E060E00D
:1017500070E0409348055093490560934A057093A3
:101760004B0582E292E0909345058093440525E382
:1017700031E0309351052093500524E331E030935C
:1017800053052093520520E331E030935505209313
:10179000540521E331E0309357052093560522E3A9
:1017A00031E0309359052093580526E331E030931A
:1017B0005B0520935A0510925D0510925E0510920C
:1017C0005F05109260051092E4051092E3054093C6
:1017D000E5055093E6056093E7057093E80590935F
:1017E000E2058093E10525ED30E03093EE0520938E
:1017F000ED0524ED30E03093F0052093EF0520ED6A
:1018000030E03093F2052093F10521ED30E0309384
:10181000F4052093F30522ED30E03093F605209394
:10182000F50526ED30E03093F8052093F70510928A
:10183000FA051092FB051092FC051092FD0510921E
:10184000810610928006409382065093830660932F
:1018500084067093850690937F0680937E062DEC18
:1018600030E030938B0620938A062CEC30E03093E6
:101870008D0620938C0628EC30E030938F06209361
:101880008E0629EC30E030939106209390062AECE6
:1018900030E030939306209392062EEC30E03093A4
:1018A000950620939406109297061092980610922F
:1018B000990610929A0610921E0710921D074093E7
:1018C0001F0750932007609321077093220790937E
:1018D0001C0780931B0785EC90E09093280780936A
:1018E000270784EC90E090932A078093290780ECE7
:1018F00090E090932C0780932B0781EC90E09093DD
:101900002E0780932D0782EC90E090933007809310
:101910002F0786EC90E09093320780933107109266
:10192000340710923507109236071092370710923D
:10193000900810928F088EE392E090938E08809327
:101940008D0887E0809391088FEF8093920886E05E
:101950008093930885E08093940884E080939508B1
:1019600083E08093960882E080939708109298080D
:101970001092990810929A0810929B0810929C0855
:1019800061E080E1F2D910922008109224081092B0
:1019900023081092250884E392E090931F08809317
:1019A0001E08EAE3F8E086E798E0108214821382CA
:1019B000158236968E179F07C1F784E092E09093C8
:1019C00081088093800880E092E090938308809360
:1019D000820884E0809384088093850888E092E000
:1019E00090937F0880937E088AE090E09093870828
:1019F0008093860884EF91E090938908809388080B
:101A000010928C0810928B0810927A0810927B0822
:101A100010927C0810927D0810928A0868E472E0A7
:101A200088E198E000DB69E472E088EB97E0FBDA9C
:101A300068E572E08EEB97E0F6DA6BE572E084EC35
:101A400097E0F1DA65E672E08AEC97E0ECDA67E6B7
:101A500072E080ED97E0E7DA62E772E086ED97E00A
:101A6000E2DA65E772E08CED97E0DDDA65E672E0D8
:101A700082EE97E0D8DA6FE772E088EE97E0D3DA8B
:101A80006BE872E08EEE97E0CEDA6EE872E084EFFB
:101A900097E0C9DA68E972E08AEF97E0C4DA6AE9A8
:101AA00072E080E098E0BFDA66EA72E086E098E0F3
:101AB000BADA69EA72E08CE098E0B5DA63EB72E0DA
:101AC00082E198E0B0CACF93DF93CDB7DEB7A1979C
:101AD0000FB6F894DEBF0FBECDBF789484B5826098
:101AE00084BD84B5816084BD85B5826085BD85B5C2
:101AF000816085BD80916E00816080936E00109240
:101B000081008091810082608093810080918100BA
:101B1000816080938100809180008160809380004B
:101B20008091B10084608093B1008091B0008160A9
:101B30008093B000809191008260809391008091A9
:101B400091008160809391008091900081608093EA
:101B500090008091A10082608093A1008091A100FB
:101B600081608093A1008091A00081608093A0009B
:101B70008091210182608093210180912101816007
:101B800080932101809120018160809320018091C8
:101B90007A00846080937A0080917A0082608093DA
:101BA0007A0080917A00816080937A0080917A0037
:101BB000806880937A001092C10064E084E1D5D8F7
:101BC00061E085E10E94E30361E085E10E94B303E7
:101BD00090E080E0D7D36AE3E62E65E0F62E08E0D9
:101BE00010E0882309F4F1C060E090E080E09CDA26
:101BF000B5D860E080E047D985EB92E06ED961E02E
:101C000080E041D98AEC92E068D962E080E03BD97B
:101C100087ED92E062D963E080E035D98BEE92E007
:101C20005CD962ED72E088E198E0F4D961E384E682
:101C300090E07ADA6AE070E080E090E00E949B0534
:101C400062E385E690E070DA6AE070E080E090E0C0
:101C50000E949B0563E386E690E066DA6AE070E046
:101C600080E090E00E949B0564E387E690E05CDA08
:101C70006AE070E080E090E00E949B0564E288E604
:101C800090E052DA6AE070E080E090E00E949B050C
:101C900008E010E060E0C80147DA64E670E080E048
:101CA00090E00E949B050F5F1F4F0C30110591F7CC
:101CB00055D861E080E0E7D88FEF92E00ED962E07E
:101CC00080E0E1D882E193E008D98BE197E00E94BF
:101CD00036018EE796E00E94360181EE95E00E9483
:101CE000360184E495E00E94360164E670E080E00D
:101CF00090E00E949B0548E1A42E48E0B42E58EBEA
:101D0000E52E57E0F52E8701D12CC12CB8018BE1CF
:101D100097E0E7D8B8018EE796E0E3D8B80181EE06
:101D200095E0DFD8B80184E495E0DBD865E070E0A9
:101D300080E090E00E949B05FFEFCF1ADF0A0A5F68
:101D40001F4F84E0C816D10409F7E8E1EE0EF11C3C
:101D5000AE14BF04C1F660E085E10E94B303809138
:101D60003F058111B7C00E94AE0660E080E08BD8CD
:101D700085E293E0B2D861E080E085D888E393E023
:101D8000ACD863E080E07FD887E493E0A6D862E037
:101D900080E079D868E472E0CE01019644D90E94CF
:101DA000720580933E05282F082E000C330B20531C
:101DB00031092A30310590F588E593E08ED860919D
:101DC0003E05CE010196CCD8EACFC801DBD2F7019F
:101DD00081937F016AE070E080E090E00E949B05C3
:101DE0000F5F1F4F0C30110581F768E472E088E146
:101DF00098E010D904E610E0C801C4D2843209F496
:101E000057CF682F88E198E0ABD80F5F1F4F6AE08B
:101E100070E080E090E00E949B05EECF8D3309F0EA
:101E200055C02D813E8180911C0890911D08281776
:101E30003907A9F489819A8160911808709119086D
:101E4000009709F42BC26115710539F4232B09F4AD
:101E500033C2FC01808190E02CC2DED42AC261E052
:101E600085E10E94B3030E94AE0661E080E00BD8DA
:101E70008EEC93E032D868EC70E080E090E00E9455
:101E80009B0560E085E10E94B3030E94AE0660E01E
:101E900080E00E94430785E293E01FD861E080E084
:101EA0000E94430788E393E018D863E080E00E9433
:101EB000430787E493E011D862E080E00E94430783
:101EC00068E472E0CE010196A5D869CF833609F0A7
:101ED00066CFDBCF0E94220480933E05882309F45D
:101EE0003CC2813309F06CC00E94AE069AE3A92E71
:101EF00095E0B92E28EBE22E27E0F22E10E03AE032
:101F0000432E512C612C712C612F80E00E944307DD
:101F1000F70144815581608171818DE898E00E94CC
:101F2000EE01612F81E10E944307F50121915F01DC
:101F300030E050E040E019A26E01F1E2CF0ED11C7A
:101F4000CA01B901A301920133D2605DF601629327
:101F50006F01211531054105510591F7309729F0A1
:101F6000BF018DE898E00E945E071F5FF8E1EF0E69
:101F7000F11C143049F60E9472050E94AE0660E022
:101F800080E00E9443078EE793E00E946D0761E0C6
:101F900080E00E94430782E993E00E946D0762E0BF
:101FA00080E00E94430786EA93E00E946D0763E0A9
:101FB00080E00E9443078AEB93E00E946D07CDC149
:101FC000823371F50E94AE0660E080E00E94430714
:101FD00081EE93E00E946D0761E080E00E9443077C
:101FE00086EF93E00E946D0762E080E00E94430765
:101FF0008BE094E00E946D0763E080E00E9443075D
:1020000080E294E00E946D070E94720580933E0575
:1020100080913E058D3309F4E0C08A32A9F7ADCF37
:10202000833309F0CFC00E94AE0661E080E00E94D9
:10203000430781E494E00E946D0763E080E00E9422
:10204000430787E493E00E946D0762E080E00E940E
:10205000430768E472E0CE0101960E9413080E94D3
:102060007205182F80933E05082E000C990BC0971F
:102070000A9760F441E0612F8DE898E00E945C06C9
:10208000612FCE0101960E94B007E9CF1D33D1F533
:102090008D819E81049718F30E94AE0660E080E077
:1020A0000E94430786E594E00E946D0761E080E0AE
:1020B0000E94430788E694E00E946D0762E088E092
:1020C0000E9443074D815E8169817A818DE898E0A5
:1020D0000E94EE0163E080E00E94430780E294E00A
:1020E0000E946D070E94720580933E0580913E0517
:1020F0008D3309F4ABC08A32A9F7CE0101960E9454
:1021000056073BCF133609F059C00E94AE0661E076
:1021100080E00E94430781E494E00E946D0763E041
:1021200080E00E94430787E493E00E946D0762E02D
:1021300080E00E94430768E472E0CE0101960E94AD
:102140000A088DCF4D815E8188E198E00E94E0070A
:1021500064E2CE0101960E94B00710E000E08D819C
:102160009E8108171907B8F489819A8160E0009769
:1021700021F0800F911FFC016081C8018C599F4F95
:102180000E9494086AE070E080E090E00E949B0565
:102190000F5F1F4FE4CF62E080E00E9443078DE7AE
:1021A00094E00E946D0760E085E10E94B30368EC53
:1021B00070E080E090E00E949B059FCF1A3209F00A
:1021C0004ECF9BCF0E94AE0661E080E00E944307A5
:1021D00080E994E00E946D0732C061E085E10E94D1
:1021E000B3030E94AE0661E080E00E94430780EAEC
:1021F00094E00E946D078AE3E82E85E0F82E08E05F
:1022000010E0F70111927F0160E0C8010E9494087C
:1022100064E670E080E090E00E949B050F5F1F4F36
:102220000C30110571F762E080E00E94430784E3FF
:1022300094E00E946D0760E085E10E94B30368ECC2
:1022400070E080E090E00E949B0597CE61E085E120
:102250000E94B3030E94AE0661E080E00E94430743
:1022600081EB94E00E946D0769817A8161157105A7
:1022700009F068CF8091180890911908009709F02B
:102280005DD1109219081092180810921D08109232
:102290001C0810921B0810921A085ACF611571057C
:1022A00059F0232B49F0FB01808190E091958195B5
:1022B0009109892B09F0D3CD61E085E10E94B30338
:1022C0000E94AE0660E080E00E9443078AE593E04A
:1022D0000E946D0761E080E00E9443078CE693E076
:1022E0000E946D0762E080E00E9443078AE593E068
:1022F0000E946D0760E971E080E090E00E949B051C
:1023000081E080933F0560E085E10E94B3030E9475
:10231000AE0660E080E00E9443078EE793E00E94F3
:102320006D0761E080E00E94430782E993E00E942C
:102330006D0762E080E00E94430786EA93E00E9416
:102340006D0763E080E00E9443078AEB93E00E9400
:102350006D07CE0101960E9456070E94E208FFCC4D
:10236000CF93DF93C8E1D8E02697CE010E945607AD
:1023700087E0C83BD807C1F788E198E0DF91CF91AB
:102380000C945607F999FECF92BD81BDF89A992712
:1023900080B50895262FF999FECF1FBA92BD81BD51
:1023A00020BD0FB6F894FA9AF99A0FBE01960895D7
:1023B000A1E21A2EAA1BBB1BFD010DC0AA1FBB1F49
:1023C000EE1FFF1FA217B307E407F50720F0A21BBB
:1023D000B30BE40BF50B661F771F881F991F1A9428
:1023E00069F760957095809590959B01AC01BD0152
:1023F000CF010895EE0FFF1F881F8BBF0790F69146
:10240000E02D19940F931F93CF93DF9382309105A2
:1024100010F482E090E0E091A708F091A80830E085
:1024200020E0B0E0A0E0309799F42115310509F4DF
:102430004AC0281B390B24303105D8F58A819B818D
:102440006115710589F1FB0193838283FE0111C03F
:10245000408151810281138148175907E0F04817E4
:10246000590799F4109761F012960C9312971396EE
:102470001C933296CF01DF91CF911F910F91089558
:102480000093A7081093A808F4CF2115310551F047
:102490004217530738F0A901DB019A01BD01DF01A2
:1024A000F801C1CFEF01F9CF9093A8088093A70856
:1024B000CDCFFE01E20FF31F81939193225031099A
:1024C00039832883D7CF2091A5083091A608232BE4
:1024D00041F420911A0230911B023093A6082093F8
:1024E000A50820911802309119022115310541F4F7
:1024F0002DB73EB740911C0250911D02241B350B95
:10250000E091A508F091A608E217F307A0F42E1BAE
:102510003F0B2817390778F0AC014E5F5F4F241747
:10252000350748F04E0F5F1F5093A6084093A5084B
:10253000819391939FCFF0E0E0E09CCFCF93DF9326
:102540000097E9F0FC01329713821282A091A7084C
:10255000B091A808ED0130E020E01097A1F42081AF
:102560003181820F931F2091A5083091A60828176A
:10257000390709F061C0F093A608E093A508DF9140
:10258000CF910895EA01CE17DF07E8F54A815B8114
:102590009E0141155105B1F7E901FB83EA83499199
:1025A0005991C40FD51FEC17FD0761F4808191810B
:1025B0000296840F951FE901998388838281938114
:1025C0009B838A83F0E0E0E012968D919C911397B3
:1025D0000097B9F52D913C911197CD010296820F8C
:1025E000931F2091A5083091A6082817390739F6BE
:1025F000309751F51092A8081092A708B093A6083A
:10260000A093A508BCCFD383C28340815181840F9E
:10261000951FC817D90761F44E5F5F4F8881998174
:10262000480F591F518340838A819B819383828302
:102630002115310509F0B0CFF093A808E093A70861
:102640009ECFFD01DC01C0CF13821282D7CF4F9203
:102650005F926F927F928F929F92AF92BF92CF9232
:10266000DF92EF92FF920F931F93CF93DF938C0132
:10267000009791F4CB01DF91CF911F910F91FF90C3
:10268000EF90DF90CF90BF90AF909F908F907F9012
:102690006F905F904F90B6CEFC01E60FF71F9C0144
:1026A00022503109E217F30708F4AAC0D901CD91ED
:1026B000DC911197C617D70718F1C530D10570F016
:1026C000CE0104978617970748F0C61BD70B2297B1
:1026D000C193D1936D937C93CF0130DFC801DF911B
:1026E000CF911F910F91FF90EF90DF90CF90BF900F
:1026F000AF909F908F907F906F905F904F900895D4
:102700005B01AC1ABD0A4C018C0E9D1EA091A7085E
:10271000B091A808512C412CF12CE12C109731F5E7
:102720008091A5089091A6088815990509F05CC0CC
:102730004616570608F058C0809118029091190269
:10274000009741F48DB79EB740911C0250911D0235
:10275000841B950BE817F90708F052C0F093A60800
:10276000E093A508F90171836083B8CF8D919C91A6
:10277000119712966C90129713967C901397A81548
:10278000B90559F56C0142E0C40ED11CCA14DB0432
:1027900020F1AC014A195B09DA011296159780F015
:1027A0006282738251834083D9016D937C93E114DB
:1027B000F10471F0D7011396FC93EE9312978ECF2C
:1027C00022968C0F9D1FF90191838083F301EFCF37
:1027D000F093A808E093A70881CF4816590608F49B
:1027E0002C017D01D3019ACFCB010CDE7C01009737
:1027F00039F0AE01B80107D0C801A0DE87016ECF65
:1028000010E000E06BCFFB01DC0102C001900D92F3
:1028100041505040D8F70895FB01DC018D910190A3
:1028200080190110D9F3990B0895FB01DC01019087
:102830000D920020E1F7089511E0C3E0D1E000E03F
:1028400005C0802FFE01D6DD2196011DC430D107C1
:0A28500080E00807B1F7F894FFCF0D
:10285A001A1B1C1D161718193738392F3435362A02
:10286A003132332D63303D2B0000A908800000006F
:10287A000000B702EE013402030365024302570265
:10288A00000000001F04E003B1030000000051072C
:10289A00EE011B06CB050D0A004D722E41686D61D3
:1028AA0064696E656A616400363500313939392DDB
:1028BA00323031320041004D722E526F6F68616EB4
:1028CA007900373200313939302D32303230004D0B
:1028DA00722E4768616C6962616600353900323070
:1028EA0030302D323032300042004D722E4D697236
:1028FA0053616C696D00373300313939302D32300C
:10290A003136004300796F75722064656661756CB3
:10291A0074207061737320697300202020202020A6
:10292A002020313233340020796F752063616E20A4
:10293A006368616E67652069742000207768656E38
:10294A006576657220796F752077616E7420002034
:10295A0020696E697469616C697A6174696F6E73F2
:10296A00210020202020706C6561736520776169E1
:10297A00742120200020706C6561736520656E7477
:10298A00657220796F7572002020202020207061E6
:10299A007373776F726400202020203D20746F20AB
:1029AA00636F6E6669726D002A002020203D3D3DEE
:1029BA003D3D3D3D3D3D3D3D3D3D3D002020207C92
:1029CA0020594F552041524520494E207C00202055
:1029DA002020204D41494E204D454E553A20202079
:1029EA00200073656520766F74657320202020208F
:1029FA00202020203100726573657420766F74651B
:102A0A00732020202020202032006368616E6765D1
:102A1A002070617373776F72642020203300202046
:102A2A0057524F4E472050415353574F524421213A
:102A3A0000202041726520796F75207375726520B8
:102A4A00796F7520200020202077616E7420746FC2
:102A5A002064656C657465202020002020202020D9
:102A6A00616C6C20766F7465733F202020202000F3
:102A7A0020203D2059455320202020202020202A94
:102A8A00204E4F002020202020202020446F6E65F9
:102A9A0000656E74657220796F7572206E65772095
:102AAA00706173733A0020202061726520796F7516
:102ABA0020737572653F3F00796F7572206E657776
:102ACA002070617373776F726420697300202070BD
:102ADA00617373776F7264206368616E67656400FF
:102AEA00202020202077726F6E67206B6579210085
:102AFA00202020207265736574696E67202E2E2E41
:102B0A00002020776169742061206D6F6D656E7495
:042B1A00202E2E003B
:00000001FF
