:10000000F4C0000004C1000002C1000000C10000F3
:10001000FEC00000FCC00000FAC00000F8C00000F4
:10002000F6C00000F4C00000F2C00000F0C0000004
:10003000EEC00000ECC00000EAC00000E8C0000014
:10004000E6C00000E4C00000E2C00000E0C0000024
:10005000DEC00000DCC00000DAC00000D9C0000033
:10006000D6C00000D4C00000D2C00000D0C0000044
:10007000CEC00000CCC00000CAC00000C8C0000054
:10008000C6C00000C4C00000C2C00000C0C0000064
:10009000BEC00000BCC00000BAC00000B8C0000074
:1000A000B6C00000B4C00000B2C00000B0C0000084
:1000B000AEC00000ACC00000AAC00000A8C0000094
:1000C000A6C00000A4C00000A2C00000A0C00000A4
:1000D0009EC000009CC000009AC0000098C00000B4
:1000E00096C0000000002100240027002A002D00F7
:1000F0003000330001010000040107010A01000083
:100100002200250028002B002E00310034000201BF
:100110000000050108010B01050505050705080894
:100120000808020202020A0A080804040404010181
:100130000101010101010303030303030303040796
:1001400007070C0C0C0C0C0C0C0C0202020206062D
:100150000606060606060B0B0B0B0B0B0B0B010220
:1001600010202008081020401020408002010201C9
:100170000804020101020408102040808040201081
:1001800008040201800402018040201008040201DA
:100190000804020101020408102040800102040842
:1001A0001020408000000A0B02090C0D0E08070306
:1001B000040100000000000000000000000000003A
:1001C000000000000000000000000000000000002F
:1001D00012111000000000000000000000000000EC
:1001E0000000000000000000000011241FBECFEF3F
:1001F000D1E2DEBFCDBF00E00CBF22E0A0E0B2E064
:1002000001C01D92A930B207E1F74CD07DC1F8CEF4
:100210001F920F920FB60F9211242F933F938F933B
:100220009F93AF93BF938091050290910602A09196
:100230000702B09108023091040223E0230F2D370A
:1002400058F50196A11DB11D20930402809305026B
:1002500090930602A0930702B093080280910002D7
:1002600090910102A0910202B09103020196A11D9A
:10027000B11D8093000290930102A0930202B093FB
:100280000302BF91AF919F918F913F912F910F905A
:100290000FBE0F901F90189526E8230F0296A11D00
:1002A000B11DD2CF789484B5826084BD84B581605D
:1002B00084BD85B5826085BD85B5816085BD809131
:1002C0006E00816080936E001092810080918100A9
:1002D00082608093810080918100816080938100A1
:1002E000809180008160809380008091B100846063
:1002F0008093B1008091B00081608093B0008091C4
:100300009100826080939100809191008160809340
:100310009100809190008160809390008091A10075
:1003200082608093A1008091A10081608093A100F0
:100330008091A00081608093A00080912101826063
:10034000809321018091210181608093210180911E
:10035000200181608093200180917A0084608093E5
:100360007A0080917A00826080937A0080917A008E
:10037000816080937A0080917A00806880937A000F
:100380001092C100D0E0C0E06FEFCE01A7D021965F
:10039000C11580E1D807C1F746E851E0FA01649140
:1003A00020E431E0F9018491882399F090E0880FEE
:1003B000991FFC01EC51FF4FA591B491FC01E25053
:1003C000FF4F859194918FB7F8949C91692B6C9312
:1003D0008FBFECECF1E08491FA014491F901249192
:1003E000222309F431C0882309F181508231F0F4CD
:1003F000E82FF0E08827E150FE4F8F4F7DC0330299
:10040000370211022B022F0216023A024002440266
:100410004A024E02520258025C0216026002660252
:100420006A02809180008F7780938000E22FF0E055
:10043000EE0FFF1FE250FF4FA591B4918FB7F894D4
:100440009C91492B4C938FBFC0E0D0E02097F1F3F3
:100450000E940000FBCF809180008F7DE5CF8091CE
:100460008000877FE1CF84B58F7784BDDFCF84B5EF
:100470008F7DFBCF8091B0008F778093B000D6CF77
:100480008091B0008F7DF9CF809190008F7780931D
:100490009000CCCF809190008F7DF9CF809190001B
:1004A000877FF5CF8091A0008F778093A000BECF8B
:1004B0008091A0008F7DF9CF8091A000877FF5CF3C
:1004C000809120018F7780932001B0CF809120010F
:1004D0008F7DF9CF80912001877FF5CF262FF99965
:1004E000FECF1FBA92BD81BD20BD0FB6F894FA9A17
:1004F000F99A0FBE01960895EE0FFF1F881F8BBF5C
:0C0500000790F691E02D1994F894FFCFBD
:00000001FF
